{
  "contractName": "MaoriArt",
  "abi": [
    {
      "inputs": [
        {
          "internalType": "string",
          "name": "_artHash",
          "type": "string"
        },
        {
          "internalType": "string",
          "name": "_artName",
          "type": "string"
        },
        {
          "internalType": "string",
          "name": "_artistName",
          "type": "string"
        }
      ],
      "name": "writeToBlockchain",
      "outputs": [],
      "stateMutability": "nonpayable",
      "type": "function"
    },
    {
      "inputs": [],
      "name": "readFromBlockchain",
      "outputs": [
        {
          "internalType": "string",
          "name": "",
          "type": "string"
        }
      ],
      "stateMutability": "view",
      "type": "function"
    }
  ],
  "bytecode": "0x608060405234801561001057600080fd5b50610817806100206000396000f3fe608060405234801561001057600080fd5b50600436106100365760003560e01c8063275393801461003b5780634071e1ff14610057575b600080fd5b61005560048036038101906100509190610275565b610075565b005b61005f6100aa565b60405161006c919061039b565b60405180910390f35b826000908161008491906105d3565b50816001908161009491906105d3565b5080600290816100a491906105d3565b50505050565b60606000806040516020016100bf9190610759565b60405160208183030381529060405260016040516020016100e09190610759565b6040516020818303038152906040526002604051602001610103939291906107b0565b60405160208183030381529060405290508091505090565b6000604051905090565b600080fd5b600080fd5b600080fd5b600080fd5b6000601f19601f8301169050919050565b7f4e487b7100000000000000000000000000000000000000000000000000000000600052604160045260246000fd5b61018282610139565b810181811067ffffffffffffffff821117156101a1576101a061014a565b5b80604052505050565b60006101b461011b565b90506101c08282610179565b919050565b600067ffffffffffffffff8211156101e0576101df61014a565b5b6101e982610139565b9050602081019050919050565b82818337600083830152505050565b6000610218610213846101c5565b6101aa565b90508281526020810184848401111561023457610233610134565b5b61023f8482856101f6565b509392505050565b600082601f83011261025c5761025b61012f565b5b813561026c848260208601610205565b91505092915050565b60008060006060848603121561028e5761028d610125565b5b600084013567ffffffffffffffff8111156102ac576102ab61012a565b5b6102b886828701610247565b935050602084013567ffffffffffffffff8111156102d9576102d861012a565b5b6102e586828701610247565b925050604084013567ffffffffffffffff8111156103065761030561012a565b5b61031286828701610247565b9150509250925092565b600081519050919050565b600082825260208201905092915050565b60005b8381101561035657808201518184015260208101905061033b565b60008484015250505050565b600061036d8261031c565b6103778185610327565b9350610387818560208601610338565b61039081610139565b840191505092915050565b600060208201905081810360008301526103b58184610362565b905092915050565b7f4e487b7100000000000000000000000000000000000000000000000000000000600052602260045260246000fd5b6000600282049050600182168061040457607f821691505b602082108103610417576104166103bd565b5b50919050565b60008190508160005260206000209050919050565b60006020601f8301049050919050565b600082821b905092915050565b60006008830261047f7fffffffffffffffffffffffffffffffffffffffffffffffffffffffffffffffff82610442565b6104898683610442565b95508019841693508086168417925050509392505050565b6000819050919050565b6000819050919050565b60006104d06104cb6104c6846104a1565b6104ab565b6104a1565b9050919050565b6000819050919050565b6104ea836104b5565b6104fe6104f6826104d7565b84845461044f565b825550505050565b600090565b610513610506565b61051e8184846104e1565b505050565b5b818110156105425761053760008261050b565b600181019050610524565b5050565b601f821115610587576105588161041d565b61056184610432565b81016020851015610570578190505b61058461057c85610432565b830182610523565b50505b505050565b600082821c905092915050565b60006105aa6000198460080261058c565b1980831691505092915050565b60006105c38383610599565b9150826002028217905092915050565b6105dc8261031c565b67ffffffffffffffff8111156105f5576105f461014a565b5b6105ff82546103ec565b61060a828285610546565b600060209050601f83116001811461063d576000841561062b578287015190505b61063585826105b7565b86555061069d565b601f19841661064b8661041d565b60005b828110156106735784890151825560018201915060208501945060208101905061064e565b86831015610690578489015161068c601f891682610599565b8355505b6001600288020188555050505b505050505050565b600081905092915050565b600081546106bd816103ec565b6106c781866106a5565b945060018216600081146106e257600181146106f75761072a565b60ff198316865281151582028601935061072a565b6107008561041d565b60005b8381101561072257815481890152600182019150602081019050610703565b838801955050505b50505092915050565b7f2000000000000000000000000000000000000000000000000000000000000000815250565b600061076582846106b0565b915061077082610733565b60018201915081905092915050565b600061078a8261031c565b61079481856106a5565b93506107a4818560208601610338565b80840191505092915050565b60006107bc828661077f565b91506107c8828561077f565b91506107d482846106b0565b915081905094935050505056fea264697066735822122009dce52469f4860e55d35cb3b3efc58ddc9755a4318645736f88d0c125cc4fb264736f6c63430008110033",
  "immutableReferences": {},
  "source": "// SPDX-License-Identifier: UNLICENSED\r\npragma solidity 0.8.17;\r\n\r\ncontract MaoriArt {\r\n    string artHash;\r\n    string artName;\r\n    string artistName;\r\n\r\n    function writeToBlockchain(string memory _artHash, string memory _artName, string memory _artistName) public {\r\n        artHash = _artHash;\r\n        artName = _artName;\r\n        artistName = _artistName;\r\n    }\r\n\r\n    function readFromBlockchain() view public returns (string memory) {\r\n        string memory art = string.concat(string.concat(artHash, ' '), string.concat(artName, ' '), artistName);\r\n        return art;\r\n    }\r\n}\r\n ",
  "sourcePath": "D:\\git\\nft-app\\src\\contracts\\MaoriArt.sol",
  "compiler": {
    "name": "solc",
    "version": "0.8.17+commit.8df45f5f.Emscripten.clang"
  },
  "schemaVersion": "3.4.10",
  "updatedAt": "2022-10-12T06:04:12.573Z",
  "devdoc": {
    "kind": "dev",
    "methods": {},
    "version": 1
  },
  "userdoc": {
    "kind": "user",
    "methods": {},
    "version": 1
  }
}